:040000000FEF01F00D
:100008005382D9CF42F0DACF43F0F3CF44F0F4CFA4
:1000180045F0F6CF46F0F7CF47F0F8CF48F0F5CFE8
:1000280049F0F2A4E6D0320E526008D02D0E5218D4
:10003800D8A402D05C0E09D02D0E07D05C0E521841
:10004800D8A402D07C0E01D02F0E526E504A512AED
:1000580051BE28D0515004E10A0E505CD8A022D0DD
:10006800000E516E000E506E4E4A4F2A4FBE1AD0E7
:100078004F5004E13C0E4E5CD8A014D0000E4F6ED9
:10008800000E4E6E4C4A4D2A4DBE0CD04D5004E128
:100098003C0E4C5CD8A006D0000E4D6E000E4C6E87
:1000A8004A4A4B2A110E196E50C01AF051C01BF063
:1000B800000E1D6E000E1C6E040ED8EC01F00E0E24
:1000C8000C6E52C00DF0000E0F6E000E0E6E000E7C
:1000D8009EEC02F04FBE14D04F5004E10A0E4E5C65
:1000E800D8A00ED00E0E196E4EC01AF04FC01BF0DD
:1000F800000E1D6E000E1C6E040ED8EC01F018D018
:100108000E0E0C6E300E0D6E000E0F6E000E0E6E83
:10011800040E9EEC02F00F0E196E4EC01AF04FC07E
:100128001BF0000E1D6E000E1C6E040ED8EC01F0C4
:100138004DBE14D04D5004E10A0E4C5CD8A00ED030
:100148000B0E196E4CC01AF04DC01BF0000E1D6E40
:10015800000E1C6E040ED8EC01F018D00B0E0C6EBD
:10016800300E0D6E000E0F6E000E0E6E040E9EEC1D
:1001780002F00C0E196E4CC01AF04DC01BF0000EA8
:100188001D6E000E1C6E040ED8EC01F04BBE14D090
:100198004B5004E10A0E4A5CD8A00ED0080E196E26
:1001A8004AC01AF04BC01BF0000E1D6E000E1C6EEC
:1001B800040ED8EC01F018D0080E0C6E300E0D6E3F
:1001C800000E0F6E000E0E6E040E9EEC02F0090E6D
:1001D800196E4AC01AF04BC01BF0000E1D6E000EBF
:1001E8001C6E040ED8EC01F03C0ED76EB00ED66E25
:1001F800F29449C0F5FF48C0F8FF47C0F7FF46C072
:10020800F6FF45C0F4FF44C0F3FF43C0DAFF42C025
:10021800D9FF53921100FEEF04F033EC04F03AECEE
:1002280005F0070E00016B6F000E6C6F7F0E6D6F8F
:10023800000EA3EC03F0000E4BEC05F0000E0001DD
:10024800786FF40E796F7F0E7A6F000E7C6F000E58
:100258007B6F000E2CEC03F0080E786FFA0E796FA6
:100268007F0E7A6F000E7C6F000E7B6F040E2CECF5
:1002780003F0000E846F000E836F000E866F000E71
:10028800856F84A085D0000183518411D8A480D0C3
:10029800000E846F010E836F85518611D8A41AD081
:1002A800854B862B000E6B6F000E6C6F7F0E6D6F8B
:1002B800000EA3EC03F0000E786FC90E796F7F0E65
:1002C8007A6F000E7C6F000E7B6F000E2CEC03F033
:1002D800F28A55D085058611D8A41AD0854B862B6D
:1002E800000E6B6F000E6C6F7F0E6D6F000EA3EC2F
:1002F80003F0000E786FBB0E796F7F0E7A6F000ED9
:100308007C6F000E7B6F000E2CEC03F0F29A37D056
:10031800000E866F000E856F000E4B6E000E4A6E43
:100328004AC04CF04BC04DF04CC04EF04DC04FF0A1
:100338004EC050F04FC051F0000E6B6F000E6C6F46
:100348007F0E6D6F000EA3EC03F0080E786FD70ECA
:10035800796F7F0E7A6F000E7C6F000E7B6F040E34
:100368002CEC03F0000E786FA80E796F7F0E7A6F71
:10037800000E7C6F000E7B6F000E2CEC03F0060E57
:100388000001826F710EE82EFED7822FFCD779D735
:1003980084B077D7000183518411D8B472D7000E86
:1003A800846F000E836F6DD73F6E1BAE19D019C0D6
:1003B8000CF02D0E0D6E1CC00EF01DC00FF03F503E
:1003C8009EEC02F0192A1AC001F01BC002F0FF0EC1
:1003D800046E036827EC05F001C01AF002C01BF098
:1003E800000E416E000E406E1A501B10D8A426D085
:1003F800300E1F6E404A412A21D040501F0FD96E3F
:10040800DA6A1AC001F01BC002F0000E046E0A0E70
:10041800036E6BEC03F00150300FDF6E404A412A47
:100428001AC001F01BC002F0000E046E0A0E036E23
:10043800EAEC02F001C01AF002C01BF01BBE24D087
:100448001B50DBE11A04D8A01FD0D7D74006D8A08C
:10045800410640501F0FD96EDA6ADF501E6E1E50DB
:100468001A6E1B6A19C00CF01AC00DF01CC00EF0F1
:100478001DC00FF03F509EEC02F0192A7F0E196440
:1004880003D03F2A000E196E41BE12004150DEE132
:100498004004D8A01200DAD7716FE00E00016C2575
:1004A800606F616BFF0E6123000E636F050E626F54
:1004B80014EC05F060C074F061C075F06B51050D67
:1004C800F3CF6BF0000E776F000E766F6D516E11E3
:1004D800D8A40BD0890E7425F66E7D0E7521F76EA3
:1004E8000800F550726F736B0ED0890E7425F66E86
:1004F8007D0E7521F76E0800F5506F6F706B6F1DDC
:10050800726F701D736F6BC065F072C066F07151C9
:10051800D4EC03F000016B2B744B752B764B772BC7
:1005280077BFD4D7775105E1050E765DD8B01200B4
:10053800CDD71200126EE00E0D24016E026AFF0E76
:100548000222000E046E050E036E27EC05F001C0B2
:1005580015F002C016F00C50050DF3CF0CF0000E8C
:10056800186E000E176E0E500F10D8A40BD0890EFF
:100578001524F66E7D0E1620F76E0800F550136EE2
:10058800146A0ED0890E1524F66E7D0E1620F76EAD
:100598000800F550106E116A101C136E111C146EB1
:1005A8000CC006F013C007F0125005EC04F00C2A3A
:1005B800154A162A174A182A18BED5D7185005E121
:1005C800050E175CD8B01200CED71200000E066ECA
:1005D80004AE06D0036C041ED8B0042A010E066EC1
:1005E80002AE06D0016C021ED8B0022A010E061A0D
:1005F800000E086E000E076E03500410D8B41CD00D
:10060800010E056E04D0D89003360436052A04AED0
:10061800FAD7D890073608360350015C04500258C0
:10062800D8A005D00350015E0450025A0780D89024
:1006380004320332052EEDD70650D8B404D0076C27
:10064800081ED8B0082A07C001F008C002F012003E
:100658007F6F000E0001816F000E806F19D07851F6
:1006680080256B6F805179257D6F81517A217E6F4E
:100678007DC0F6FF7EC0F7FF0800F5CF6CF07BC0A9
:100688006DF07CC06EF07F5150EC02F0804B812BF6
:10069800805179257D6F81517A217E6F7DC0F6FF6B
:1006A8007EC0F7FF0800F5500A0AD8B4120080513E
:1006B80079257D6F81517A217E6F7DC0F6FF7EC0DE
:1006C800F7FF0800F5500009D8B41200C8D7000E8B
:1006D800066E02AE06D0016C021ED8B0022A010EC8
:1006E800066E04AE04D0036C041ED8B0042A03506E
:1006F8000410D8B418D0010E056E04D0D890033673
:100708000436052A04AEFAD70350015C0450025897
:10071800D8A004D00350015E0450025AD890043285
:100728000332052EF1D70650D8B404D0016C021E4E
:10073800D8B0022A01C001F002C002F01200716FA5
:1007480071C072F00001736B1DD06CC074F0756BD2
:100758000AD074C065F0000E666F7251D4EC03F0D5
:100768000001744B752B6D516E6F6F6B74516E5D1C
:100778006F51800A706F7551800A7059D8B0E9D7E7
:10078800724B732B6B516E6F6F6B72516E5D6F5145
:10079800800A706F7351800A7059D8A01200D5D79B
:1007A800676F400E0001656104D0000E696F010E8D
:1007B80003D0000E696F020E686F68C06AF0675157
:1007C8005CEC05F00001655158EC04F000016A5139
:1007D800CCEC04F0000E936E6A05D8B48190020E3A
:1007E8006A19D8B4819281968184000081880000BA
:1007F80066C083FF000E956E00008198818081821B
:100808001200086E400E066004D0000E0A6E010E3B
:1008180003D0000E0A6E020E096E09C00BF00850D4
:100828006CEC05F0065078EC04F00B50E6EC04F0A4
:10083800000E936E0B04D8B48190020E0B18D8B436
:1008480081928196818400008188000007C083FF1F
:10085800000E956E00008198818081821200000E42
:100868000F01396F000E3A6F000E3B6F000E3C6FA0
:10087800000E956E000E936E0F0E966E000E836E30
:10088800000E816E000E846EF28ED59CD59AD588A6
:10089800D596D594D592D5803C0ED76EB00ED66E2F
:1008A800F294F29AD58E1200646F400E00016461D2
:1008B8000DD0010E626F6451400995EC04F0020EF0
:1008C8000001626F400E95EC04F01200010E626F99
:1008D8007F0E95EC04F0020E0001626F6451C00FA8
:1008E800400995EC04F01200056E400E05600CD02E
:1008F800010E036E05504009B1EC04F0020E036EC0
:10090800400EB1EC04F01200010E036E7F0EB1EC44
:1009180004F0020E036E0550C00F4009B1EC04F05C
:100928001200636F00016251CCEC04F0000E936E6C
:100938006205D8B48190020E6219D8B4819281966A
:10094800819400008188000063C083FF000E956ECB
:1009580000008198818081821200046E0350E6ECC9
:1009680004F0000E936E0304D8B48190020E0318AD
:10097800D8B481928196819400008188000004C0D7
:1009880083FF000E956E000081988180818212009D
:10099800616F9568000E936E00016105D8B481906F
:1009A800020E6119D8B481928186819400008188F1
:1009B800000083CF60F08198000160BFF8D7818084
:1009C80081821200026E9568000E936E0204D8B4FC
:1009D8008190020E0218D8B4819281868194000019
:1009E8008188000083CF01F0819801BEF9D781800A
:1009F80081821200F40EF66E0A0EF76E000EF86E83
:100A08000900F5CF52F000EE4AF0080EEE6AE8064B
:100A1800FDE153905392000EF86E000111EF01F0C2
:100A280060516203F3CF64F0F4CF65F06051630363
:100A3800F350652761516203F350652764C060F085
:100A480065C061F0120001500302F3CF05F0F4CF46
:100A580006F001500402F350062602500302F35038
:100A6800062605C001F006C002F01200818A010EB8
:100A78000001626F3F0E95EC04F0020E0001626FF8
:100A88003F0E95EC04F0000E4BEC05F0120000014F
:100A9800646F010E0001626F6451C00995EC04F0A7
:100AA800020E0001626F6451C00995EC04F0120057
:100AB800646F010E0001626F6451B80995EC04F08F
:100AC800020E0001626F6451B80995EC04F012003F
:100AD800056E010E036E0550B809B1EC04F0020E64
:0D0AE800036E0550B809B1EC04F012002DAA
:107D880000000000000000005F000000070007007E
:107D9800147F147F14242A7F2A122313086462365E
:107DA800495522500005030000001C2241000041F3
:107DB800221C00082A1C2A0808083E08080050301F
:107DC80000000808080808003030000020100804E7
:107DD800023E5149453E00427F40004261514946BA
:107DE8002141454B311814127F1027454545393C30
:107DF8004A49493001710905033649494936064956
:107E080049291E00363600000056360000000814C6
:107E180022410014141400412214080002015109DF
:107E280006324979413E7E1111117E7F4949493612
:107E38003E414141227F4141221C7F494949417FBE
:107E4800090901013E414151327F0808087F00417C
:107E58007F41002040413F017F081422417F40407C
:107E680040407F0204027F7F0408107F3E41414169
:107E78003E7F090909063E4151215E7F09192946BD
:107E8800464949493101017F01013F4040403F1FB8
:107E98002040201F7F2018207F63140814630304E8
:107EA800780403615149454300007F4141020408B9
:107EB800102041417F00000402010204404040407C
:107EC80040000102040020545454787F4844443848
:107ED8003844444420384444487F3854545418089B
:107EE8007E090102081454543C7F080404780044B5
:107EF8007D40002040443D00007F10284400417F21
:107F080040007C041804787C08040478384444440D
:107F1800387C14141408081414187C7C0804040809
:107F28004854545420043F4440203C4040207C1C8A
:107F38002040201C3C4030403C44281028440C5031
:107F480050503C4464544C44000836410000007FC3
:107F58000000004136080008082A1C08081C2A08E6
:107F6800080800AA0008003838380000000000009F
:107F780000000000004D617263656C20416C616215
:107F88006172742042656E6F69740041726F6E2071
:107F98004D6F72656E6F20566963746F7269610008
:107FA80050726573732052453020746F207374616A
:107FB80072740054696D65722073746F70706564B3
:107FC8000054696D65722073746172746564003061
:107FD800303A30303A30302E30002D2D2D2D2D2DC9
:107FE8002D2D004C344120474C43440052656164B8
:087FF800790031302E30000049
:020000040030CA
:0E000000FF021900FFA580FF0FC00FE00F40A8
:00000001FF
