:0400000080EF00F09D
:100008004D82F3CF07F0F4CF08F0F2A46FD0000EC2
:100018004B6E4BC04CF04A50D8B482B21DD082A06F
:100028001BD0010E4C6E444A452A050E4418451053
:10003800D8A412D0484A492A49BE0AD0495004E1F6
:10004800150E485CD8A004D0000E496E140E486EF8
:10005800000E456E000E446E4A50D8B482B018D0D7
:1000680082A216D0010E4B6E444A452A050E44184A
:100078004510D8A40DD04806D8A0490649AE04D0EA
:10008800000E496E000E486E000E456E000E446E5E
:100098004A50D8B482A008D082A206D0010E4A6E77
:1000A800010E4B6E4BC04CF04A50D8B41AD048C021
:1000B80001F049C002F0000E046E0A0E036E0EEC49
:1000C80007F04650011807E147500218D8A403D09A
:1000D800020E4A6E02D0464A472A010E4B6E4BC0AA
:1000E8004CF0FC0ED76EF30ED66EF29408C0F4FFF7
:1000F80007C0F3FF4D92110078EF06F04A50D8A4DC
:10010800BCD0000E1D6EEC0E1E6E7E0E1F6E000E15
:10011800BDEC03F0000E1D6E440E1E6E7F0E1F6EAA
:10012800010EBDEC03F0000E1D6E9C0E1E6E7F0EC0
:100138001F6E020EBDEC03F0140E1D6EEA0E1E6E4D
:100148007E0E1F6E020EBDEC03F049BE06D049506C
:1001580011E10A0E485CD8B00DD0600E156EA90EDC
:10016800166E7E0E176E48C018F049C019F091EC53
:1001780002F00CD0600E156E180E166E7F0E176EFC
:1001880048C018F049C019F091EC02F0000E1D6E3D
:10019800600E1E6E1F6A030EBDEC03F0000E1D6E8E
:1001A800EF0E1E6E7F0E1F6E040EBDEC03F0090EDF
:1001B8001D6EA90E1E6E7F0E1F6E040EBDEC03F0A1
:1001C800000E1D6EF90E1E6E7F0E1F6E050EBDEC25
:1001D80003F0090E1D6ED00E1E6E7F0E1F6E050EEB
:1001E800BDEC03F0000E1D6EF40E1E6E7F0E1F6E2A
:1001F800060EBDEC03F0090E1D6EB60E1E6E7F0EC8
:100208001F6E060EBDEC03F0000E1D6E860E1E6EF0
:100218007F0E1F6E070EBDEC03F048C009F049C001
:100228000AF0000E0C6E640E0B6EFBEC06F009C0B3
:100238000FF00AC010F0000E126E140E116E9FEC33
:1002480004F00FC08EF010C08FF08EC017F08FC072
:1002580018F05BEC04F0000E246E040E236E15EC0F
:1002680004F027EC03F0030E146E140E156E160E30
:10027800166E030EACEC05F012004A04D8A4DED0CA
:1002880046C00FF047C010F0000E126E0A0E116E35
:100298009FEC04F00F50485C0001906F10504958D3
:1002A800916F000E1D6EEC0E1E6E7E0E1F6E000E00
:1002B800BDEC03F0000E1D6E5A0E1E6E7F0E1F6EF3
:1002C800010EBDEC03F0000E1D6E9C0E1E6E7F0E1F
:1002D8001F6E020EBDEC03F0140E1D6EEA0E1E6EAC
:1002E8007E0E1F6E020EBDEC03F0000191BF06D01A
:1002F800915111E10A0E905DD8B00DD0760E156EB1
:10030800A90E166E7E0E176E90C018F091C019F0E7
:1003180091EC02F00CD0760E156E180E166E7F0E4C
:10032800176E90C018F091C019F091EC02F0000E11
:100338001D6E760E1E6E1F6A030EBDEC03F0000ED6
:100348001D6EEF0E1E6E7F0E1F6E040EBDEC03F0C9
:10035800090E1D6EA90E1E6E7F0E1F6E040EBDECDB
:1003680003F0000E1D6EF90E1E6E7F0E1F6E050E39
:10037800BDEC03F0090E1D6ED00E1E6E7F0E1F6EB3
:10038800050EBDEC03F0000E1D6EF40E1E6E7F0E02
:100398001F6E060EBDEC03F0090E1D6EC30E1E6E19
:1003A8007F0E1F6E060EBDEC03F0000E1D6E860E4E
:1003B8001E6E7F0E1F6E070EBDEC03F090C009F095
:1003C80091C00AF0000E0C6E640E0B6EFBEC06F08A
:1003D80009C00FF00AC010F0000E126E140E116E54
:1003E8009FEC04F00FC08EF010C08FF08EC017F095
:1003F8008FC018F05BEC04F046C009F047C00AF063
:10040800000E0C6E0A0E0B6EFBEC06F009C00FF026
:100418000AC010F048C011F049C012F09FEC04F077
:100428000FC08CF010C08DF08CC023F08DC024F06C
:1004380015EC04F027EC03F0F28A1200000E1D6E92
:10044800D60E1E6E7E0E1F6E000EBDEC03F0000E63
:100458001D6E2E0E1E6E7F0E1F6E010EBDEC03F07C
:10046800000E1D6E020E1E6E7F0E1F6E020EBDEC7C
:1004780003F0000E1D6E700E1E6E7F0E1F6E030EB3
:10048800BDEC03F0000E1D6EEF0E1E6E7F0E1F6E8C
:10049800040EBDEC03F0090E1D6EA90E1E6E7F0E34
:1004A8001F6E040EBDEC03F0000E1D6EF90E1E6EDD
:1004B8007F0E1F6E050EBDEC03F0090E1D6ED00EEB
:1004C8001E6E7F0E1F6E050EBDEC03F0000E1D6E36
:1004D800F40E1E6E7F0E1F6E060EBDEC03F0090EA5
:1004E8001D6EB60E1E6E7F0E1F6E060EBDEC03F05F
:1004F800000E1D6E860E1E6E7F0E1F6E070EBDEC63
:1005080003F027EC03F0030E146E150E156E160E8D
:10051800166E020EACEC05F01200180E1B6E82D09F
:10052800250E2018D8B407D01550D96EDA6A20C025
:10053800DFFF152A77D0000E1C6E16C0F6FF17C015
:10054800F7FF164A172A0800F5CF20F02050000AB6
:10055800D8B474D0640AD8B403D00D0AD8A462D031
:100568001B50D96EDA6ADECF1EF0DDCF1FF0020E07
:100578001B261FAE06D0030E1C121E6C1F1ED8B001
:100588001F2A010E206E2050020D9F0EF324F66ED6
:100598007E0EF420F76E0900F5501E5C0900F55038
:1005A8001F58D8A005D0202A050E2018D8A4EBD7AC
:1005B8001CC01AF0030E1A16D8B406D01550D96EFE
:1005C800DA6A2D0EDF6E152A20C01DF027D01D50C7
:1005D800020D9F0EF324F66E7E0EF420F76E0900CE
:1005E800F5CF0BF00A00F5CF0CF01EC009F01FC0C4
:1005F8000AF009EC06F009C010F00AC011F0000E6C
:10060800136E0A0E126E57EC06F01050300F206E63
:100618001550D96EDA6A20C0DFFF152A1D061D287D
:10062800D8A4D5D716C0F6FF17C0F7FF164A172A61
:100638000800F5CF20F02050D8A472D71550D96EF5
:10064800DA6ADF6A120020EE3FF010EE14F0040EB2
:10065800DBCFE3FFE806FCE220EE3AF010EE19F0FB
:10066800040EDBCFE3FFE806FCE220EE35F010EEE7
:100678001EF0040EDBCFE3FFE806FCE220EE30F0CC
:1006880010EE23F0040EDBCFE3FFE806FCE24C504B
:10069800D8A41BD0000E296E000E286E2850730FA8
:1006A8000E6E2850140FD96EDA6ADF500F6E020EE4
:1006B800DBEC05F0284A292A29BEF0D729501FE18A
:1006C800050E285CD8B01BD0E9D7000E2B6E000EA3
:1006D8002A6E2A50730F0E6E2A50190FD96EDA6AD5
:1006E800DF500F6E020EDBEC05F02A4A2B2A2BBED8
:1006F800F0D72B5004E1050E2A5CD8A0EAD74B505E
:10070800D8A41BD0000E2D6E000E2C6E2C50730F2B
:100718000E6E2C501E0FD96EDA6ADF500F6E040E63
:10072800DBEC05F02C4A2D2A2DBEF0D72D5020E108
:10073800050E2C5CD8B01200E9D7000E2F6E000E03
:100748002E6E2E50730F0E6E2E50230FD96EDA6A4E
:10075800DF500F6E040EDBEC05F02E4A2F2A2FBE59
:10076800F0D72F5005E1050E2E5CD8B01200E9D75E
:100778001200226E000E246E000E236E1FD01D5034
:100788002324146E23501E24206E24501F20216E13
:1007980020C0F6FF21C0F7FFF86A050EF76403D002
:1007A8000800F55005D0F6CFE9FFF7CFEAFFEF5084
:1007B800156E2250E1EC04F0234A242A23501E240B
:1007C800206E24501F20216E20C0F6FF21C0F7FFA5
:1007D800F86A050EF76403D00800F55005D0F6CF87
:1007E800E9FFF7CFEAFFEF500A0AD8B41200235006
:1007F8001E24206E24501F20216E20C0F6FF21C029
:10080800F7FFF86A050EF76403D00800F55005D025
:10081800F6CFE9FFF7CFEAFFEF500009D8B412008E
:10082800AED7000E2B6E140E2A6E000E296E370EF0
:10083800286E16D02AC018F028504BEC05F02A4A2A
:100848002B2A2BBEF7D72B5004E12D0E2A5CD8A0FB
:10085800F1D7000E2B6E140E2A6E2806D8A0290692
:1008680023C009F024C00AF0000E0C6E190E0B6E9E
:10087800FBEC06F009C00FF00AC010F0000E126E73
:10088800640E116E9FEC04F00F503708256E10505F
:10089800D8A0E82A0008266E2850255C2650800A31
:1008A800276E2950800A2758D8B01200CAD7000EE0
:1008B8001B6E3C0E1A6E09D01AC00EF03C0E0F6E5D
:1008C800020EDBEC05F01A4A1B2A17C009F018C003
:1008D8000AF0000E0C6E230E0B6EFBEC06F009C03E
:1008E8000FF00AC010F0000E126E640E116E9FEC2D
:1008F80004F03D0E0F26000E10220F501A5C1B50FC
:10090800800A196E1050800A1958D8B00AD0D4D766
:100918001AC00EF0000E0F6E020EDBEC05F01A4A3C
:100928001B2A1BBEF5D71B5005E1600E1A5CD8B018
:100938001200EED71200000E146E12AE06D0116C23
:10094800121ED8B0122A010E146E10AE06D00F6C0B
:10095800101ED8B0102A010E141A000E166E000EC2
:10096800156E11501210D8B41CD0010E136E04D09D
:10097800D89011361236132A12AEFAD7D8901536F7
:10098800163611500F5C12501058D8A005D01150CF
:100998000F5E1250105A1580D89012321132132E51
:1009A800EDD71450D8B404D0156C161ED8B0162A3A
:1009B80015C00FF016C010F01200186EE00E1524C6
:1009C800096E0A6AFF0E0A22000E0C6E050E0B6EE7
:1009D800FBEC06F009C019F00AC01AF01450050D16
:1009E800F3CF14F0000E1C6E000E1B6EAB0E192414
:1009F800F66E7C0E1A20F76E0800F550166E176A10
:100A080014C00EF016C00FF01850DBEC05F0142AD5
:100A1800194A1A2A1B4A1C2A1CBEE8D71C5005E191
:100A2800050E1B5CD8B01200E1D71200080E1D6E2F
:100A3800E60E1E6E7F0E1F6E020EBDEC03F0080E52
:100A48001D6EDD0E1E6E7F0E1F6E030EBDEC03F0D5
:100A5800020E1D6EC00E1E6E7E0E1F6E050EBDECC4
:100A680003F0150E266E4B0E256EBE0EE82EFED731
:100A7800252EFCD7262EFAD700D0070E146E000EAE
:100A8800156E7F0E166E000EACEC05F01200226E8D
:100A980022C019F0D8901932D8901932D89019324A
:100AA8001950206E216A22C019F0070E1916010E7E
:100AB8001A6E000E1B6E192A03D0D8901A361B36F0
:100AC800192EFBD71AC01CF01BC01DF018C015F05A
:100AD800205021EC07F0196E19501E6E1F6A18C0BD
:100AE8000EF01C501E100F6E2050DBEC05F01200AB
:100AF800106E400E0E6004D0000E126E010E03D070
:100B0800000E126E020E116E11C014F00F50D8B400
:100B180006D0105042EC07F00E5095EC06F0145039
:100B2800CDEC06F09568000E936E1404D8B481904D
:100B3800020E1418D8B481928186818400008188BD
:100B4800000083CF13F081988180818213501200B6
:100B58001A6E1AC01BF01C6A1CD015C01DF01E6A44
:100B680009D01DC00EF0000E0F6E1B50DBEC05F017
:100B78001D4A1E2A1650176E186A1D50175C185009
:100B8800800A196E1E50800A1958D8B0EAD71B4A35
:100B98001C2A1450176E186A1B50175C1850800ACC
:100BA800196E1C50800A1958D8A01200D6D7106E9A
:100BB800400E0E6004D0000E126E010E03D0000E1F
:100BC800126E020E116E11C013F0105042EC07F0B5
:100BD8000E5095EC06F01350CDEC06F0000E936E17
:100BE8001304D8B48190020E1318D8B48192819658
:100BF80081840000818800000FC083FF000E956E7D
:100C080000008198818081821200000E0E6E000E15
:100C18000D6E0B500C10D8B41CD0010E0F6E04D002
:100C2800D8900B360C360F2A0CAEFAD7D8900D3662
:100C38000E360B50095C0C500A58D8A005D00B5042
:100C4800095E0C500A5A0D80D8900C320B320F2EC8
:100C5800EDD70DC009F00EC00AF01200000E0F010A
:100C6800396F000E3A6F000E3B6F000E3C6F000E9E
:100C7800956E000E936E010E946E000E836E000E3C
:100C8800816E000E826EF28ED59CD59AD588D59647
:100C9800D584D582D580FC0ED76EF30ED66EF2942D
:100CA800F29AD58E120012501310D8B418D0010E33
:100CB800146E04D0D89012361336142A13AEFAD70D
:100CC8001250105C13501158D8A004D01250105E66
:100CD8001350115AD89013321232142EF1D710C073
:100CE80010F011C011F01200BC0EF66E0E0EF76E69
:100CF800000EF86E00EE30F010EE14F00900F5CF9B
:100D0800EEFFE550E150FAE100EE44F0090EEE6A1C
:100D1800E806FDE14D904D92000EF86E0001E5EFFA
:100D280006F00D6E400E0D600CD0010E0B6E0D50CE
:100D38004009B2EC06F0020E0B6E400EB2EC06F063
:100D48001200010E0B6E7F0EB2EC06F0020E0B6E57
:100D58000D50C00F4009B2EC06F012000C6E0B509B
:100D6800CDEC06F0000E936E0B04D8B48190020E01
:100D78000B18D8B481928196819400008188000074
:100D88000CC083FF000E956E0000819881808182DF
:100D980012000A6E9568000E936E0A04D8B481900A
:100DA800020E0A18D8B48192818681940000818845
:100DB800000083CF09F0819809BEF9D7818081822C
:100DC800120032EC06F033EC07F0070E146E000E3A
:100DD800156E7F0E166E000EACEC05F0000E50EC92
:100DE80007F01AEC05F0F28A82EC00F0FCD7095003
:100DF8000B02F3CF0DF0F4CF0EF009500C02F350B4
:100E08000E260A500B02F3500E260DC009F00EC034
:100E18000AF0120001500302F3CF05F0F4CF06F0F8
:100E280001500402F350062602500302F35006262E
:100E380005C001F006C002F01200176E15C00EF0D2
:100E4800010E0F6E17507CEC05F015C00EF0010E68
:100E58000F6E17507CEC05F0166E16501200818A42
:100E6800010E0B6E3F0EB2EC06F0020E0B6E3F0E3B
:100E7800B2EC06F0000E50EC07F012000D6E010EF9
:100E88000B6E0D50B809B2EC06F0020E0B6E0D5049
:100E9800B809B2EC06F012000D6E010E0B6E0D5083
:100EA800C009B2EC06F0020E0B6E0D50C009B2EC90
:100EB80006F01200F7F7F7F7F70808080808F7F739
:080EC80081F7F708087C080817
:107CAA0000000000000000005F000000070007005D
:107CBA00147F147F14242A7F2A122313086462363D
:107CCA00495522500005030000001C2241000041D2
:107CDA00221C00082A1C2A0808083E0808005030FE
:107CEA0000000808080808003030000020100804C6
:107CFA00023E5149453E00427F4000426151494699
:107D0A002141454B311814127F1027454545393C0E
:107D1A004A49493001710905033649494936064934
:107D2A0049291E00363600000056360000000814A5
:107D3A002241141414141441221408000201510996
:107D4A0006324979413E7E1111117E7F49494936F1
:107D5A003E414141227F4141221C7F494949417F9D
:107D6A00090901013E414151327F0808087F00415B
:107D7A007F41002040413F017F081422417F40405B
:107D8A0040407F0204027F7F0408107F3E41414148
:107D9A003E7F090909063E4151215E7F091929469C
:107DAA00464949493101017F01013F4040403F1F97
:107DBA002040201F7F2018207F63140814630304C7
:107DCA00780403615149454300007F414102040898
:107DDA00102041417F00000402010204404040405B
:107DEA0040000102040020545454787F4844443827
:107DFA003844444420384444487F3854545418087A
:107E0A007E090102081454543C7F08040478004493
:107E1A007D40002040443D00007F10284400417FFF
:107E2A0040007C041804787C0804047838444444EC
:107E3A00387C14141408081414187C7C08040408E8
:107E4A004854545420043F4440203C4040207C1C69
:107E5A002040201C3C4030403C44281028440C5010
:107E6A0050503C4464544C44000836410000007FA2
:107E7A000000004136080008082A1C08081C2A08C5
:107E8A00080801AA0108003838380000000000007C
:107E9A00000000000001000A006400E80310272027
:107EAA00205F7C20202020207C207C202830256414
:107EBA00732920207C004D617263656C20416C61DE
:107ECA00626172742042656E6F6974002020285FB7
:107EDA005F295F285F5F5F5F20202020202020200D
:107EEA007C002020285F5F5F5F5F5F5F5F5F20200D
:107EFA002020202020207C00202020205F295F28AD
:107F0A005F20207C20202020202020207C00202090
:107F1A005F7C20202020207C207C20282564732957
:107F2A0020207C0020202020282028202920207C96
:107F3A0077617465723A20207C002020205B202023
:107F4A0020205D20207C77617465723A20207C00B5
:107F5A002020205B585858585D20207C7761746532
:107F6A00723A20207C0020205F7C20202020207C68
:107F7A00207C2020646F6E6521207C0020285F5FB2
:107F8A005F5F5F5F5F5F5F7C5F5F5F5F5F5F5F5FDA
:107F9A007C00202020205F5F5F5F5F20207C007CC8
:107FAA00207C5F5F5F5F5F5F5F5F7C007C5F7C7CE4
:107FBA005F5F5F7C40407C7C007C5F7C7C40407CD7
:107FCA005F5F5F7C7C007C207C7C6F6E7C6F66666A
:107FDA007C7C002D2D2D2D2D2D2D2D004C34412056
:107FEA00474C434400207C207C0020205F7C0020FA
:057FFA007C5F7C00002B
:020000040030CA
:0E000000FF021900FFA180FF0FC00FE00F40AC
:00000001FF
